:020000020000FC
:1080000000C00091780005FD68C0F092800608E18C
:10801000009392060FEF0A950023E9F70091880676
:1080200000FFECC0E0E0F0E0079116910F3F19F47B
:108030001F3F09F4E3C051C03091CF0137FDFCCFA1
:108040003BB72BBFF8012091CA0113E21093CA017C
:108050000A01E8952093CA013BBF08953BB72BBFA7
:10806000F8012091CA014093CA013DE930933400E0
:10807000E8952093CA013BBF089520E02D9301505D
:108080001040E1F7089525912D9301501040D9F744
:10809000089588E69FE8FC0105911491FC01329651
:1080A000A591B491FC01349625913491422F432B34
:1080B00019F0F901E8DF01C0E0DF06961FE8843718
:1080C000910748F3089501E70DBF00E20EBFC4E237
:1080D000DAE20E9449400E940C43F092920600911D
:1080E0000020109101200A3A154511F00C9400006F
:1080F000F0920020F092012000E200937800F6CF89
:108100007B2F0A2ED80106C0F90161919F016D9362
:1081100041505040642F652BB9F7A02DB72F08951B
:10812000AA84998488847F806E805D804C80BB8126
:10813000AA8199818881F0E0EC0FFD1FEF0108957D
:10814000AA929A928A927A926A925A924A92BA938E
:10815000AA939A938A930895AF93BF93D8010190FD
:108160000D9241505040D9F7BF91AF910895409181
:10817000CA01E22FF32F0093CA0104914093CA0170
:10818000089540E04BBFF80158ED54BF2083089597
:10819000000F111F4A95E2F70895169507954A9525
:0481A000E2F7089565
:1081F4000C94D9450C94E74664CF6091CF0167FD98
:10820400FCCF642F652B51F0F8016491F90161935F
:108214009F010F5F1F4F41505040F3CF0895B901A4
:1082240098018B01EACF0E94A040229739012A01CC
:10823400A62ED801912F80E006C02091CF0127FD02
:10824400FCCF45E217D1042D052909F442C0882446
:10825400BCD007FDFDCF00E8902EAA2059F0FC0108
:1082640005911491088319830F3F1F4F31F088241F
:10827400839403C00FEF08830983042D0529A1F01B
:10828400A817B90739F429D0088301E0401A00E09F
:10829400500A51F0FC013196AE17BF0729F40FEFD5
:1082A400400E501E1AD00983488159818C0120E068
:1082B40030E00E941C4002969A9479F68C011A953B
:1082C400882009F0BACF2091CF0127FDFCCF44E2EA
:1082D400B9CF2296EBE00C9490401196F3010191F2
:1082E4003F01089561E09FCFB901EFECF1E02081F7
:1082F40027FDFDCF13D0105F98018B0196D013C0DA
:10830400B90198018B01F0CFEFECF1E0208127FD5A
:10831400FDCF04D0E02FF0E1108305C0ECEC208108
:10832400286020830895ECECF1E00081077F00834E
:108334000895EFECF1E0008107FDFDCF008101FF1E
:1083440007C006E30093CA0121E00BEC11E05CD105
:108354000895F0D2C801B22FA091CA01EADF35D046
:1083640007FDFDCF1B2F082FCFDF00E00093C201D4
:108374009093C1018093C00105E341D1A093CA0148
:1083840088C38A938091CA013AD18093CA0102C1F9
:108394001091CF0117FDFCCF10E2019F00E0009384
:1083A400C2011092C1010092C00105E3EACF5B2F24
:1083B4006A2FD8010AD007FDFDCF40E030E21D91BD
:1083C40045D0E9F7A62FB52F08950091CF01089560
:1083D4000E94A540C8012901DA010DC08201E7DF2E
:1083E40045E08C010E94CF40D3DF809600E2400E2E
:1083F40000E0501E90970A2F0B2B79F0082F0F7175
:1084040021F4A03200E0B00748F7F20121912F01D6
:108414008C019FDF01961197EECFE6E00C94954016
:10842400D7CF62E770E2260F371F0C94804068EEC6
:1084340070E2F9CF8A93802F7CDFC7DF07FDFDCF81
:1084440040E030E2182F02D0E9F7A4C0042F5CDF2B
:1084540043953A950895B9DF07FDFDCF40E200E06A
:1084640010E008D00FEFE6DFB0DF07FDFDCF00E33B
:1084740088DF7EC220E030E00C942E40F894E0E0E7
:10848400F0E20AEA15E50083118320917900216066
:1084940009E710E0B9D0FFCF0FBF08952197AAD004
:1084A40010E41093CA0410E21093CA04E1ECF4E05F
:1084B400108111601083E9EC108112601083E8ECE4
:1084C400108110641083E9EC108111601083E8ECD2
:1084D400108110681083E0DF219608952AE107D007
:1084E4000093FA042BE103D00093FB0408958ED08B
:1084F4000F3F09F40FE10895CFCF21972FB72883B9
:10850400F89448811095F0E0E02FE059FF4F008186
:1085140001230083042FF0DFDFCF8A93219700E04B
:108524000093600010E4E9DF23E004E410E06CD081
:1085340001D50064008301E0009360000FB7088355
:10854400F894888110E002E028E0129FF001EC50DA
:10855400FF4D20E0258313950A95B1F7BFDF009105
:10856400C0040093C004E6D4006800830081006165
:10857400008308EF10E2E6EC00831183E0EC96D46C
:108584000FEF0583E8EC00810160008387DF082F8B
:1085940083DF2196899108957FCF219724E001E418
:1085A40010E032D02DE132D0009362002CE12ED0C5
:1085B400009363001FD0E0E5F0E0108112601083A7
:1085C400EBDFE1E5008101FFFDCF21E000E410E0F5
:1085D4001BD0E6E5F0E00081097F008300E807870F
:1085E4000BEB008B008104600083E0E600810160F6
:1085F400008372CF0FB70883F8940881089500931D
:10860400CA0121E00BEC11E00C94C14030E002E01F
:108614000C94B74027E402EA10E0F6DFBEDF78945A
:108624000CE0009381060093850677DFFFCFD7D156
:10863400048915890058C1F00058C9F404E0009376
:1086440086060091880600FD0BC0E0EFF0E2008191
:10865400039500830B3058F021E009E710E0D4CFF4
:1086640000E00093F020089504E000938506089547
:10867400E1EFF0E200E0028301E010E00083118307
:10868400089500910C210F770093C3040895A7D196
:10869400068F178F20A331A30895A1D1208D018DBA
:1086A4000A9529F00A9599F00A95B9F01DC0209110
:1086B400D22030E002ED10E29BD191D1FFD220A173
:1086C40031A10217130710F400A311A351C1E0EC68
:1086D400F0E2228133818F01EFCF222329F424E0B9
:1086E40030E004EE10E2E8CF77C075D006A702E0D0
:1086F40002AB00E004A305A302A303A3089500E0D2
:108704000093EE20A1D0009190000093E820009106
:1087140091000093E920009192000093EA200091D7
:1087240093000093EB200091D00101FB16F001E0CF
:1087340001C000E01BC14CD00F7141F528D007FFE8
:1087440013C0112329F0165041F0125039F01EC005
:1087540022E030E001EF10E205C09FCF21E030E0DD
:1087640003EF10E245D104C1155019F0145031F053
:108774000DC003E413E402A313A3F5CF79DF2FD1D3
:10878400008D0093F320002371F3B9CF25C010911D
:108794000B2125D1068908951ED000A301A302A3AD
:1087A40003A304A305A3068907FF03C087D2012BF3
:1087B40071F00ED0007619F4BEDF002339F408D02E
:1087C4000F71013021F40AD0002309F0D1C004C094
:1087D40000910A21089503D100E00895BA93AA9361
:1087E400F7DF0076003271F5D2DF07FF10C01250B8
:1087F40041F01A9529F526E030E002E211E2F8D0C2
:108804001DC0ACEEB0E221D0D9F009951CC01A9578
:1088140021F01350A9F418D011C00091EE200023C8
:1088240029F000E412E402A313A308C020E430E01A
:1088340003E311E2DDD00BEF14E4D4D001E003C074
:108844000FE033D000E05FC150CF59D100E0E030F9
:10885400F0070895033041F0023031F0043021F084
:10886400053011F011E001C010E01093302112E046
:10887400019FF001E356FF4D4081F1810AE111E2CD
:10888400E42F48E050E00C94AC40E3E3F1E20281D1
:10889400002351F40381013118F008E006D09CCF85
:1088A400D9DF99DF04AB05AB63C0009322210AE052
:1088B4000093262108953ED0A4EFB0E2FD0106A95D
:1088C40017A9012B39F400E018EF06AB17AB80E0D1
:1088D40098E010C0FD0186A997A9082F092B49F13A
:1088E400983010F080E098E006A917A9081B190B2E
:1088F40006AB17ABAC01DDD062A5F3A5E62F099555
:1089040004E711E207C0FD0124A935A92F5F3F4FF9
:1089140024AB35AB9C010197232BE1F2F8012191A3
:108924008F012F3F81F305E00093222100E615E437
:1089340021D0AFC00C94A74022D019F025D011F457
:1089440029D04ACFB8DF14C01AD019F01DD011F4C1
:1089540021D042CF0091EF2014AD012319F001ED95
:1089640014E402C00EE415E405D002C00093EF2025
:1089740001E00895E8EEF0E204831583089505E329
:1089840011E265D0002308952AD022A533A5203012
:108994003040089503E006A70AE002AB089503E01F
:1089A4000093222102E00093262116CF0091EF20AC
:1089B40010913021012309F0F2CF11D024A535A55F
:1089C4002030304011F4E6DF02C0D9DF09F404CFCF
:1089D40020E038E00BD00BE615E404D0C9CFE4EF77
:1089E400F0E20895FCDF04A315A3089504E711E25F
:1089F4004ECE2ADF00E0E8EEF0E204830583E3E3F1
:108A0400F1E210810181003021E0120709F4CECF98
:108A1400003023E0120709F497CF0130120709F45C
:108A24008BCF003024E0120731F415DD002300E081
:108A340009F408959BCF0330120721F401E0009359
:108A4400EE2008950330164009F41FCFC5CE72DF1F
:108A5400F80150810181402FA8E2B1E20D935C93AB
:108A6400D5979281038120E0FD0106A017A020A4E0
:108A740031A4001591052205230520F008E08BDFC1
:108A840000E007C0041B802F950B019686AB97ABC3
:108A940001E0E4E00C94974039D046A957A909D0E5
:108AA4009A962DD09B970995FD0126A937A99EDF9B
:108AB40029C024A935A904E711E2089590DF24A967
:108AC40005A9009374212093752122E030E08EDF04
:108AD4004FCF1CD004A915A946A957A9202F2F733D
:108AE400622F70E024E731E2260F371F9C9607D0EF
:108AF4009D97099500E0FD0104A305A303C0ED9132
:108B0400FC91089501E0A991B9910895BA93AA93AB
:108B1400A4EFB0E2FD0108959D01E8EC0CD20F7DB5
:108B2400008300810F7D0083E0E0F1E202E0059321
:108B3400A2E0B1E200E010E00D930C9353963CD117
:108B440000E406936ED000E406931D931D931D93D9
:108B54001C9315971D931C9311AFD901089528EF09
:108B640030E212E0019F1EE1012210E007FB00E069
:108B740000F9000D43E00E94CA40020F131F08953C
:108B84002051304041F02051304039F020523040E3
:108B940031F050E405C051E403C052E401C053E491
:108BA4004ED100E0018306E000835183089535D15E
:108BB4000091CB0407FF04C000E8B9D138DD28C018
:108BC4009FD1002329F5EBECB6D104FF17C000E1D7
:108BD400AED14EDD00E00093C30420E430E010E0A9
:108BE400CFDF20E430E010E000E8CADF04E719E258
:108BF4000093FC201093FD2060D00AC0008106FF82
:108C040002C000E404C0008105FF02C000E28FD16D
:108C1400F4D0189504E00093312103D002E00693C8
:108C24000895E8EFF0E20895BA93AA93A6E1B1E2B9
:108C34000CDE09F0099567CFC1D0033011F43CD0A4
:108C44003AC0B2D080A191A1801B910B282F292B6F
:108C5400D1F4A1D033D00217130719F006AD0023C5
:108C640011F0D8DF28C004A115A120E000301207BC
:108C740089F0F8010995002369F0FD0100E002AFD5
:108C840003AF80A191A1803400E0900718F080E444
:108C940090E001C001E000933221FD0186879787AF
:108CA400068D178D22AD33AD020F131F008B118B70
:108CB40089016CD020D0EDCEB7DF2ECF048D158D79
:108CC400089505E000933121E1E0F1E204E0059329
:108CD400E9EFF0E204E0059308951B2F2A2F7FDECD
:108CE400DF01DD9603E00C9300E00687078703D0DD
:108CF400A22FB12F0895E0E0F1E290CF5FD00430CD
:108D040011F4DADF42C0FD018681978162AD73AD53
:108D140000A111A19B01280F391F0217130718F492
:108D2400C801861B970BAC0124E739E2068D178D29
:108D3400060F171F7ADB38D029D08034904031F4E5
:108D44002ED0448D558D2417350750F000A311A360
:108D540094967BDD19F00995002379F0BEDF15C0E8
:108D640020A131A12017310779F49496C8DE959794
:108D74006DDD19F00995002311F4A3DF06C014D0AA
:108D84000AD000E002AF03AF13D083CE080F191F3F
:108D940002AF13AF089503D020AF31AF089520ADD3
:108DA40031AD200F311F0895FD0102AD13AD0895BB
:108DB400E8EFF0E202E0069300E231CF0E94A74020
:108DC400A4EFB0E200913121089527D096D001FD9F
:108DD40002C083D089F402E00093CC040091C5045E
:108DE4002DD0008105FF04C029D0E6DF87DF04C051
:108DF40000E825D0E1DF20DF0BCF8FBF0991199167
:108E040029913991499159916991799109901990D0
:108E140029903990E991F991BDCB8A93FA93EA9319
:108E24003A922A921A920A927A936A935A934A939A
:108E34003A932A931A930A938FB7089500E08FDE2A
:108E4400F80108959A938A93BDDF002331F003302B
:108E540011F0043009F4E8DE30DFC1DD868197814A
:108E6400089709F548E050E024E739E20AE011E206
:108E7400DCDAE8ECF4E01AD019D08EDC002311F42B
:108E840020DF11C086DC07FF05C013D002E005AF68
:108E9400D3DE09C013DF012B11F41FDF04C009D096
:108EA40001E005AF85DF8991999108950081006201
:108EB4003ECA00E000AF01AF02AF03AF08951DD07A
:108EC40001FD0AC00AD009F008957CDF013009F4DD
:108ED40004CF043009F4F8DE089530D053CD0DD01A
:108EE40001FD0AC0FADF09F008956CDF023009F4CD
:108EF40091CE033009F4E8DE08950091CC0408957E
:108F0400EBEC19D002FF08C0F093CA0400910021D1
:108F140006FF0BC0D4DF09C0008101FF07C002E0D7
:108F240006D00091F82006FDDADF22CD55CC00935F
:108F3400CA040895E0ECF4E000810895DEDF00FF48
:108F44004BCC01E00093CC046CDE00E80693E0E037
:108F5400F1E200E8069301E0EADF63DE00E1069354
:108F640071DF06CDCC08E820000076007220748FF3
:108F740005000000800000114174410004000082DB
:108F840041124203000000134200000400000019D3
:108F9400420000000000000000000075207D2095C4
:108FA40020952085208D209520952095209520952D
:108FB4002095209520952095209520952000090244
:108FC4001200010100C0320904000000FF0000008B
:108FD4001201000200000040EB03E42F0500000032
:068FE40000010403090472
:040000030000800079
:00000001FF
