:020000022000DC
:1000000000C00091780005FD42C0F092400608E172
:10001000009351060FEF0A950023E9F70091480677
:1000200001FFECC0E0E0F0E0079116910F3F19F4FA
:100030001F3F09F4E3C02BC03091CF0137FDFCCF47
:100040003BB72BBFF8012091CA0113E21093CA01FC
:100050000A01E8952093CA013BBF08953BB72BBF27
:10006000F8012091CA014093CA013DE93093340060
:10007000E8952093CA013BBF089501E70DBF00E258
:100080000EBFCAE9DAE20F94B4000F94BE0AF092F0
:10009000510600910020109101200A3A154511F0F7
:1000A0000C940000F0920020F092012000E20093F6
:1000B0007800F6CFEE84DD84CC84BB84AA84998456
:1000C00088847F806E805D804C80BB81AA8199810D
:1000D0008881F0E0EC0FFD1FEF010895EA92DA92BB
:1000E000CA92BA92AA929A928A927A926A925A92F0
:1000F0004A92BA93AA939A938A930895AF93BF931F
:10010000D80101900D9241505040D9F7BF91AF9165
:1001100008954091CA01E22FF32F0093CA01049180
:100120004093CA01089540E04BBFF80158ED54BF19
:1001300020830895169507954A95E2F70895000FD4
:10014000111F4A95E2F7089520E02D9301501040C9
:10015000E1F708953BBF26912D93EF5FFF4F3F4F8F
:1001600001501040B9F7089542EF55E162E0FA01FD
:10017000362F3BBF07911691FA01EE5FFF4F3F4FBD
:100180003BBFA791B691FA01362FEC5FFF4F3F4F6F
:100190003BBF079017902690202D2129222921F07E
:1001A000F001322DD7DF01C0CFDF495F5F4F6F4FC6
:1001B00016E122E0403051076207C8F208957B2F14
:1001C0000A2ED80106C0F90161919F016D9341503B
:0E01D0005040642F652BB9F7A02DB72F08956E
:1001F4000D94D7010D94F2023ECF0FBF08952AE16A
:1002040007D00093FA042BE103D00093FB04089574
:1002140030E002E00F9489000F3F09F40FE10895E4
:100224005DD0088110E41093CA0410E21093CA044C
:10023400E1ECF4E0108111601083E9EC10811260AC
:100244001083E8EC108110641083E9EC10811160D4
:100254001083E8EC108110681083CFDF2196089595
:100264008A93219700E00093600000E30F94480A0A
:1002740043D20064008301E0009360000FB7088359
:10028400F894888110E002E028E0129FF001E45421
:10029400F64D20E0258313950A95B1F7B0DF009160
:1002A400C0040093C00428D2006854D000610083C5
:1002B40000EC19E2E6EC00831183E0EC00810062BB
:1002C40000830FEF0583E8EC008101600083A8DF61
:1002D40000C0082F92DF21968991089521970FB7C6
:1002E4000883F894089500E008950093C3040895E2
:1002F4000091C304089508D104891589089504D18F
:10030400068F178F20A331A308959D01E8ECF5D142
:100314000F7D20D00F7D0083E8ECF9E202E0059325
:10032400AAECB9E200E010E00D930C935396DCD1F3
:1003340000E4069378D000E406931D931D931C9368
:1003440011961D931D931C9317971D931C9310A72F
:10035400D901089500830081089520EC39E212E068
:10036400019F1EE1012210E007FB00E000F9000DEF
:1003740043E00F94A100020F131F08952051304051
:1003840041F02051304039F02052304031F050E4F7
:1003940005C051E403C052E401C053E44FD100E06E
:1003A400018306E00083518308954BD10091CB046F
:1003B40007FF07C000E8DBD10F9446040F94D80A66
:1003C40029C0BED1002331F5EBEC97D104FF18C04E
:1003D40000E1CDD10F94330400E00093C30420E482
:1003E40030E010E0CBDF20E430E010E000E8C6DFCE
:1003F4000AEE19E20093C4291093C5296FD00AC0EC
:10040400008106FF02C000E404C0008105FF02C0B1
:1004140000E2ADD1FDD0189504E00093E82903D0A3
:1004240002E006930895E0ECF9E20895BA93AA93E2
:10043400AEEDB9E2ED91FD913C9100E0E030F007C2
:10044400300711F03CBF1995A991B9910895BCD01A
:10045400033011F442D03EC0AAD080A191A1801BE8
:10046400910B282F292BF1F4A6D0048D158D02179A
:10047400130719F005A5002311F0CEDF2BC045A109
:1004840056A167A100E040305007600791F0FA01DF
:100494006CBF1995002369F0FD0100E002A703A7D2
:1004A40080A191A1803400E0900718F080E490E0EE
:1004B40001C001E00093E929FD0186879787068D35
:1004C400178D22A533A5020F131F008B118B8901F1
:1004D40069D017D0E4E00D946500A8DF16CF05E0DD
:1004E4000093E829E9ECF9E204E00593E1ECF9E290
:1004F40004E00593089508D003E004A700E006870C
:100504000787E8ECF9E28CCFECEBF9E208955CD0D4
:10051400043011F4E2DF3DC0FD018681978162A5BC
:1005240073A500A111A19B01280F391F02171307FE
:1005340018F4C801861B970BAC012AEE39E2068D2C
:10054400178D060F171F0F94DF0031D02BD0803486
:10055400904031F434D0448D558D2417350740F044
:1005640000A311A317D011F036D059F0C4DF11C085
:1005740020A131A12017310759F40CD011F02BD050
:1005840011F4ADDF06C013D016D000E002A703A714
:10059400A7D0A0CF05A116A127A140E000301407E1
:1005A40024070895080F191F02A713A70895FD0132
:1005B40002A513A5089503D020A731A7089520A567
:1005C40031A5200F311F08950F947900ACEBB9E2E7
:1005D4000091E8290895F8012CBF19950023089586
:1005E40030D0ABD001FD02C098D089F402E0009372
:1005F400CC040091C50421D0008105FF04C01DD0A6
:1006040073D085DF04C000E819D06ED020DF02CF9C
:10061400ACBF9BBF8FBF0991199129913991499121
:100624005991699179910990199029903990E9919A
:10063400F99189919991A991089500E08EDEF801CC
:100644000895AA939A938A93FA93EA933A922A92F0
:100654001A920A927A936A935A934A933A932A93F0
:100664001A930A938FB79BB7ACB708959A938A935A
:10067400AFDF002331F0033011F0043009F4D6DE8B
:100684002DDF42DF86819781089739F548E050E0F5
:100694002AEE39E202ED19E20F94DF00E8EC2DD0E6
:1006A400006258DE006200830F942E06002311F4CA
:1006B40016DF13C029DF068907FF05C017D002E043
:1006C40004A7C5DE0AC0048D158D012B11F413DFB8
:1006D40004C00CD001E004A703D089919991089536
:1006E400E0ECF9E202E0069300E29BCE00E000A712
:1006F40001A702A703A70895E0ECF4E02CCE1DD0D7
:1007040001FD0AC00AD009F0089562DF013009F43E
:10071400F2CE043009F4E6DE08952CD05FCF0DD07C
:1007240001FD0AC0FADF09F0089552DF023009F42E
:1007340073CE033009F4D6DE08950091CC040895F5
:10074400EBECDBDF02FF08C0F093CA040091C82978
:1007540006FF0BC0D4DF09C0008101FF07C002E01F
:1007640006D00091C02906FDDADF17C0BCCD009386
:10077400CA040895E2DF00FFB6CD01E00093CC0483
:1007840052DE00E80693E8ECF9E200E8069301E0A3
:10079400EEDF49DE00E1069369DF01E00895BD0163
:1007A400A4E5B1E220915A21222351F111D11397EA
:1007B40020813181F9014481041710F5FD0124835E
:1007C4003583F90142815381240F351F08C04081CC
:1007D40050E0E40FF51F1496ED93FC9315971496CF
:1007E400F7D01597E217F30758F44181443079F7AD
:1007F4004281041761F74381141749F701E001C0EE
:1008040000E0DB010895BA93AA93002E10E053D1BF
:1008140011F400E004C018D0139611D001E0A9919E
:10082400B9910895BA93AA93002E45D131F00CD012
:1008340006D0002311F001E001C000E0F0CFED91FB
:10084400FD913C913CBF1994ECD11296ED91FC9131
:1008540002E0009EE00DF11DA081B18108950D9488
:10086400320127D1A2E5B1E243D131F080E002C0E8
:100874003BD18395EFD0E0F300E000935A2101E0EF
:1008840010E00D931C9310C131D1C9F080E00EC06B
:10089400DBD1DCD044855585668500E040305007C7
:1008A400600719F0FA016CBF19958395A4E5B1E2CC
:1008B4008FD0A081B18114960C91801748F3F4C0B5
:1008C4000091D4290F770D9477010091D429002346
:1008D40029F00A9541F00A9529F128C024E030E076
:1008E40006E011E21DC065E02EEE30E200E0162FB6
:1008F40050E072E0F901E00FF51F4081079FF0011D
:10090400E653FF4D4283538303951A9599F7660F77
:100914006E5F6093CA202091CA2030E00AEC10E296
:10092400C6D005C061E124EF30E2E0CF02C001E0AF
:10093400089500E00895BA93AA93A2EDB9E2FD01E7
:10094400428103810A9539F00A95C1F00A95B1F103
:100954000C5051F136C037D0208130E070D0008186
:100964001181A5D0FD0106811781228533850217E7
:10097400130710F40287138701E051CF24D0218993
:100984004217F8F45FD024E0429F000D111DF801D6
:1009940000811181F8012281338189D0189618D001
:1009A400199702E00183DECF4AD004811581202FFC
:1009B400212B39F0F80122813381D3CF86DF002344
:1009C40089F600E0DACF3BD02081F181E22F08954F
:1009D400ED91FC9108956DD082ED99E2FC01E5D092
:1009E40051F50F947A01002331F129D02FD02189B8
:1009F400FC0102812017F8F034DFA2E5B1E2FC012A
:100A0400028100935A2120915A212223B1F01AD055
:100A140034E0239F000D111D04501040FD0102839A
:100A2400138380E001C0839515D038F410E0082FBB
:100A3400F9DE0023C1F700E001C001E035C0E4E4C1
:100A4400F1E20895FCDF0281138108950081F181B0
:100A5400E02F08951296ED91FC911397DDD0801745
:100A6400089527D03ED086819781019751F440D0D4
:100A740041F00480CFD0001620F410E0002D1BD0EC
:100A840011F400E011C0FD01A281B38102E0009ED7
:100A9400A00DB11D9DDFD2D00093582121E030E09C
:100AA40008E511E204D001E0E4E00D9465000D9442
:100AB40081010D94790073DE0023089510D075D060
:100AC40039F416D029F0848192810ED0002311F4D8
:100AD40000E002C08C01A6DE8991999108959A9351
:100AE4008A93E2EDF9E20895082F8DCE0F947900F0
:100AF40000915A21E1CFF3DF008107FF2AC08681EC
:100B04009781082F092B09F44EC000810F71D1F48D
:100B14001181112329F0165059F0125059F012C0C6
:100B2400029709F040C022E030E002E511E208C07B
:100B340002DF3AC00197B9F521E030E00AE511E29D
:100B4400B6DF26C0013079F501810A3061F589DF0D
:100B54002BC00F7109F511811A9581F0125019F10A
:100B6400125019F01450B1F017C01FD0E1F402E68E
:100B740014E021E00487158726870AC016D099F46B
:100B840082819381019779F42CD000810D7F0083B9
:100B940001E00AC020DF08C0013029F401810B30D4
:100BA40011F48CDF01C000E097CF06811781012B7F
:100BB40008957FDF16D00085002379F08091D6292F
:100BC400A281B381FD0142DF0481801730F410E07B
:100BD400082F71DF11F029D011F400E001C015D005
:100BE40063CFE2E5F1E2089581DF69F080E001C0BE
:100BF400839510D0801738F418D029F006D000233C
:100C0400B9F301E001C000E04FCFFD010681178177
:100C1400208517C006D0FD010081F181E02F0481F9
:100C24000895DFDFA281B3810895FD010DD0A08175
:100C3400B181FD0103D0102F082F3DCF018512850E
:100C44002385F8012CBF19940281138122E0829F2D
:100C5400000D111DF801089544DF00E002870387A9
:100C64000487058706870787008B018B008107FFB0
:100C740002C09BDFC1F00091D229007619F43BDF5A
:100C8400002381F40091D2290F71013019F491DF0E
:100C9400002341F40091D2290F71023021F4A4DF22
:100CA400002309F044CE45CE00E04AD1E2EDF9E25A
:100CB40000E00787008B018B04870587068708956A
:100CC40000E00093762156D00F94880A0F94970A77
:100CD4005BC10895BA93AA93A2EDB9E20091D22917
:100CE4000076003209F042C01091D3290C9107FF1D
:100CF40017C0125041F01A95B1F526E030E005E630
:100D040011E2B6D12EC076D1408D518D628D00E0B6
:100D140040305007600739F1FA016CBF199527C0BC
:100D24001A9521F01350F9F425D01BC000917621B7
:100D3400002359F000E00F94BD0A0EEA1AE021E006
:100D4400FD010487158726870CC020E430E009E7FD
:100D540011E28ED10AEC17E021E0FD010787108B28
:100D6400218B01E004C046D10FE0C0D000E0A9917E
:100D7400B991089599CFE2C0033041F0023031F0C7
:100D8400043021F0053011F011E001C010E010939F
:100D9400782112E0019FF001E955FF4D4081F18176
:100DA4000BE511E2E42F4AE050E00D947E00249715
:100DB400E9E7F1E203811281112319F01A9559F040
:100DC40029C00131F0F4D8DF15D100E0008B018B8C
:100DD400028B038B1FC010E0188319831A831B83B3
:100DE4000B8304810A8306D1088119812A813B81FE
:100DF40040815181628173810417150726073707E3
:100E040028F0F8D008E072D000E005C0008B118B08
:100E1400228B338B01E0249608950F947900ABE57F
:100E2400B1E247D0012B022B032B49F400E018EF69
:100E3400048B158B068B078B80E098E018C039D0A3
:100E4400402F412B422B432B89F1003048E01407FB
:100E540080E02040304010F4C80101C098E0A801AF
:100E640066897789481B590B60407040F0D09C011B
:100E740026D00AEB11E207C0FD012AD0E3D0408B53
:100E8400518B628B738B9C010197232BC1F2F80168
:100E940021918F012F3F81F305E0009365210CE33D
:100EA40018E021E0FD01008F118F228FE4E00D9402
:100EB4006500FD010489158926893789089508D0BC
:100EC4000AEB11E2048015802680F0012CBE1994EF
:100ED4004089518962897389089520D019F023D0FB
:100EE40011F403D02BC099DF51C003E002870AE05C
:100EF400E5CE14D019F017D011F4F7DF1FC0048D1C
:100F0400158D012321F00EE917E021E003C00EE264
:100F140018E021E0008F118F228F38C00BE711E217
:100F24006CD000230895EBE5F1E24481558166819C
:100F3400403050406040089503E002D000E008953E
:100F44000093652102E000936921089553D0048D34
:100F5400158D012309F0F0CF47815085618540301C
:100F64005040604011F4C1DF02C0D8DF09F4E6CF7D
:100F740020E038E07BD006E418E021E0E2EDF9E27D
:100F84000787108B218B02C00093772101E008951D
:100F9400F1DE00E02FD0008F018F028F01E00F946B
:100FA400BD0AE9E7F1E210810181003021E0120776
:100FB40009F4CCCF003023E0120709F49ACF0130B2
:100FC400120709F48ACF003024E0120739F40F9491
:100FD4009F0A002300E009F40895D6CF03301207D6
:100FE40021F401E00093762108950330164009F4BA
:100FF400DECEA4CFEBE5F1E20895BA93AA93D8012B
:10100400F9DF228933895D91152F4D91042F408B8F
:10101400518BB9011D90512D4C910080118022807B
:101024003380401551052205330520F008E05EDFCA
:1010340000E007C0401B510B620B730B03D007D0B9
:1010440001E095CE4F5F5F4F6F4F7F4F0895448B04
:10105400558B668B778B089504D031DF02D006D090
:1010640095CFEBE5F1E22489358908950AEB11E285
:101074000D948101BFDF008941894093BA21009317
:10108400BB2122E030E0EBCFB5DF00891189228952
:10109400338964897589402F4F73042E11244AEBD8
:1010A40051E2400D511D0780108421840EDF00E0C1
:1010B400E2EDF9E20787008B018B68CF8A93809178
:1010C400CA0151D0A7C0B90120D0208127FDFDCF8E
:1010D40005D098018B010F94DF0011C00BD0105F75
:1010E400089513D0208127FDFDCF04D0E02FF0E137
:1010F400108305C0ECEC2081286020830895ECEC7B
:10110400F1E00081077F00830895EFECF1E008959A
:10111400FCDF008107FDFDCF008101FF08C006E36D
:101124000093CA0121E00BEC11E00F9493000895A1
:101134000F947900C801B22FA091CA01E9DF7CD0D5
:1011440007FDFDCF1B2F082FCCDF00E00093C20169
:101154009093C1018093C00105E305D0A093CA0117
:10116400E4E00D9465000093CA0121E00BEC11E06A
:101174000D94930059D017FDFDCF36D005E353C02D
:101184005B2F6A2FD80158D007FDFDCF40E030E235
:101194001D9144D0E9F7A62FB52F08950F94770039
:1011A400C8012901DA010BC08201EADF45E08C01A4
:1011B4000F949C00DFDF809600E25BD090970A2FAB
:1011C4000B2B79F0082F0F7121F4A03200E0B00747
:1011D40058F7F20121912F018C01AADF0196119792
:1011E400EECFE6E00D94630010E2019F00E000936F
:1011F400C2011092C1010092C00108958A93802F08
:1012040087DF1AD007FDFDCF40E030E2182F06D06B
:10121400E9F702C08093CA0189910895042F61DF20
:1012240043953A9508954ACF1091CF01089504D07B
:1012340007FDFDCF00E3F7CF0091CF01089501D062
:10124400F6CF0FEFDBCF0F947900DA01CB01A801C1
:10125400622FF2DF07FDFDCF082F092B49F0FA01B9
:101264006BBF06910D934F5F5F4F6F4F0197F4CFA4
:1012740077CF400E00E0501E08950F946E00229721
:101284005A014B0128013901912FD90180E0E988E5
:1012940007C04091CF0147FDFCCF45E20F942E00DB
:1012A400082D092909F451C0CC24C6DF07FDFDCF60
:1012B40000E8D02EEE2061F0FC01ABBF079116913F
:1012C400088319830F3F1F4F31F0CC24C39403C00C
:1012D4000FEF08830983082D0929E1F04816590600
:1012E4006A067B0639F435D0088301E0801A00E0F1
:1012F400900A81F08C019D010F5F1F4F2F4F3F4FCC
:10130400401651066206730629F40FEF800E901EF4
:1013140020D00983488159818C019D010F941C00C0
:101324008E5F9F4FAF4FBF4FDA9421F68C019D0122
:101334000050114020403040CC2009F0AACF409109
:10134400CF0147FDFCCF44E2A9CF2296E0E10D9402
:101354005A0001E08EDF601E701EF50101915F01ED
:1013640008950FBF08952197083059F01FB71883C7
:10137400F8941881E0E5F0E02081202B2083012FF0
:101384006AD0219608957DD038810A9519F00A957E
:1013940059F023C0183019F422D0016002C021D0C2
:1013A4000E7F0083E8E616C01CD0097F0083183046
:1013B40019F415D002600CC0143011F4008108C077
:1013C4001F3F39F400E807870BEB008B00810460B2
:1013D4000083E0E6008101600083032F4DC004E038
:1013E400C2DFE6E5F0E0008108959A932297E0E7F2
:1013F400F0E007E01FEF11930A95E9F724E001E418
:101404005FD02CE129D009832DE126D0088399816E
:101414000F3F9F4F21F400E413E2088319830881EE
:101424000093620009810093630045D0009151004C
:1014340001FFFCCF42D021E000E442D00FB7088383
:10144400F8940881E0E5F0E010811E7F108303D05A
:1014540022969991089585CF30E002E00D94890099
:101464000DD0109502D0012305C0F0E0E02FE05923
:10147400FF4FB9CF0083042FEEDF83CF02D0488122
:10148400089521972FB72883F8940895063011F40E
:101494004BE101C043E00091510001FD06C00BD0B7
:1014A4000091510001FFFCCF08D0242F04E408D0A0
:1014B40010E400E0D5CF02E056CF1FEF02E063CF87
:1014C40010E00D9493000A011B01B901A8018001E9
:1014D40091010D942509E1E0EA930D943F090A0175
:1014E400A901980180010D9465089A01AB010D943E
:1014F400D0080A01A90122E730E2200D311D0D9424
:10150400DF000A01A9012CE431E2F7CFECE4F1E2B7
:10151400009190000083009191000183009192005A
:1015240002830091930003830895E0EDF1E00081CC
:1015340001FB00E000F90F2708950091CF0107FD9A
:10154400FCCF40E200E010E020E030E00F942E00F9
:101554000F94210901E00895F894E0E0F0E20AEA2A
:1015640015E50083118320917900216009E710E0DB
:101574000F949300FFCF089527E402EA10E00F943C
:1015840093000F94F709789400EE009301060FE09E
:101594000093210608EB009341060BE000936106DB
:1015A40008E0009381060F943104FFCF0F947D016E
:1015B4000058C9F00058D1F400E4009305060091E6
:1015C400480601FD0CC0E0E5F1E2008103950083CB
:1015D4000B3060F021E009E710E00D94930000E087
:1015E40000935021089500E4009306060895DE0850
:1015F4004C21000000D800722000160205000000F3
:10160400000200650A016D0A0100080000710A0168
:10161400770A01030000007B0A01000000040000B7
:1016240000830A0100000000000000000000000028
:101634000075207F209D209D20892093209D209D42
:10164400209D209D209D209D209D209D209D209DAE
:10165400209D2000000300000000000000000000A6
:101664000000000000000000000000000000000076
:10167400000000000000000041544D454C00444669
:1016840055204154584D4547413132384134550075
:10169400040309046206016B06016C0601BD060120
:1016A400000000001201000200000040EB03DE2FE6
:1016B40005000102000109021200010100C0320903
:1016C40004000000FF0000000A212C213E211A2101
:0416D40040210000B1
:0400000320000000D9
:00000001FF
